{
  "contractName": "Hasher",
  "abi": [
    {
      "constant": true,
      "inputs": [
        {
          "name": "_c",
          "type": "uint8"
        },
        {
          "name": "_salt",
          "type": "uint256"
        }
      ],
      "name": "hash",
      "outputs": [
        {
          "name": "",
          "type": "bytes32"
        }
      ],
      "payable": false,
      "stateMutability": "pure",
      "type": "function"
    }
  ],
  "bytecode": "0x608060405234801561001057600080fd5b5060e78061001f6000396000f3fe6080604052348015600f57600080fd5b506004361060285760003560e01c806367ef4c1314602d575b600080fd5b606360048036036040811015604157600080fd5b81019080803560ff169060200190929190803590602001909291905050506079565b6040518082815260200191505060405180910390f35b60008282604051602001808360ff1660ff1660f81b8152600101828152602001925050506040516020818303038152906040528051906020012090509291505056fea165627a7a72305820348af45744d786eeca9c82710459606d89dcd8436410709689c473445132d38f0029",
  "source": "pragma solidity ^0.5.1;\n\ncontract Hasher{\n    /** @dev Give the commitement. Must only be called locally.\n     *  @param _c The move.\n     *  @param _salt The salt to increase entropy.\n     */\n    function hash(uint8 _c, uint256 _salt) public pure returns(bytes32) {\n        return keccak256(abi.encodePacked(_c,_salt));\n    }\n}",
  "sourcePath": "/Users/cy/Desktop/rps-exercise/src/contracts/Hasher.sol",
  "compiler": {
    "name": "solc",
    "version": "0.5.8+commit.23d335f2.Emscripten.clang"
  },
  "schemaVersion": "3.0.16",
  "updatedAt": "2019-09-15T07:35:51.284Z",
  "devdoc": {
    "methods": {
      "hash(uint8,uint256)": {
        "details": "Give the commitement. Must only be called locally.",
        "params": {
          "_c": "The move.",
          "_salt": "The salt to increase entropy."
        }
      }
    }
  },
  "userdoc": {
    "methods": {}
  }
}