{
  "contractName": "RPS",
  "abi": [
    {
      "constant": true,
      "inputs": [],
      "name": "stake",
      "outputs": [
        {
          "name": "",
          "type": "uint256"
        }
      ],
      "payable": false,
      "stateMutability": "view",
      "type": "function"
    },
    {
      "constant": true,
      "inputs": [],
      "name": "c2",
      "outputs": [
        {
          "name": "",
          "type": "uint8"
        }
      ],
      "payable": false,
      "stateMutability": "view",
      "type": "function"
    },
    {
      "constant": true,
      "inputs": [],
      "name": "c1Hash",
      "outputs": [
        {
          "name": "",
          "type": "bytes32"
        }
      ],
      "payable": false,
      "stateMutability": "view",
      "type": "function"
    },
    {
      "constant": true,
      "inputs": [],
      "name": "j2",
      "outputs": [
        {
          "name": "",
          "type": "address"
        }
      ],
      "payable": false,
      "stateMutability": "view",
      "type": "function"
    },
    {
      "constant": true,
      "inputs": [],
      "name": "lastAction",
      "outputs": [
        {
          "name": "",
          "type": "uint256"
        }
      ],
      "payable": false,
      "stateMutability": "view",
      "type": "function"
    },
    {
      "constant": true,
      "inputs": [],
      "name": "j1",
      "outputs": [
        {
          "name": "",
          "type": "address"
        }
      ],
      "payable": false,
      "stateMutability": "view",
      "type": "function"
    },
    {
      "constant": true,
      "inputs": [],
      "name": "TIMEOUT",
      "outputs": [
        {
          "name": "",
          "type": "uint256"
        }
      ],
      "payable": false,
      "stateMutability": "view",
      "type": "function"
    },
    {
      "inputs": [
        {
          "name": "_c1Hash",
          "type": "bytes32"
        },
        {
          "name": "_j2",
          "type": "address"
        }
      ],
      "payable": true,
      "stateMutability": "payable",
      "type": "constructor"
    },
    {
      "constant": false,
      "inputs": [
        {
          "name": "_c2",
          "type": "uint8"
        }
      ],
      "name": "play",
      "outputs": [],
      "payable": true,
      "stateMutability": "payable",
      "type": "function"
    },
    {
      "constant": false,
      "inputs": [
        {
          "name": "_c1",
          "type": "uint8"
        },
        {
          "name": "_salt",
          "type": "uint256"
        }
      ],
      "name": "solve",
      "outputs": [],
      "payable": false,
      "stateMutability": "nonpayable",
      "type": "function"
    },
    {
      "constant": false,
      "inputs": [],
      "name": "j1Timeout",
      "outputs": [],
      "payable": false,
      "stateMutability": "nonpayable",
      "type": "function"
    },
    {
      "constant": false,
      "inputs": [],
      "name": "j2Timeout",
      "outputs": [],
      "payable": false,
      "stateMutability": "nonpayable",
      "type": "function"
    },
    {
      "constant": true,
      "inputs": [],
      "name": "getStake",
      "outputs": [
        {
          "name": "s",
          "type": "uint256"
        }
      ],
      "payable": false,
      "stateMutability": "view",
      "type": "function"
    },
    {
      "constant": true,
      "inputs": [],
      "name": "getLastMove",
      "outputs": [
        {
          "name": "c",
          "type": "uint8"
        }
      ],
      "payable": false,
      "stateMutability": "view",
      "type": "function"
    },
    {
      "constant": true,
      "inputs": [],
      "name": "getTimeout",
      "outputs": [
        {
          "name": "w",
          "type": "bool"
        }
      ],
      "payable": false,
      "stateMutability": "view",
      "type": "function"
    }
  ],
  "bytecode": "0x608060405261012c600555604051604080610f6d8339810180604052604081101561002957600080fd5b81019080805190602001909291908051906020019092919050505034600481905550336000806101000a81548173ffffffffffffffffffffffffffffffffffffffff021916908373ffffffffffffffffffffffffffffffffffffffff16021790555080600160006101000a81548173ffffffffffffffffffffffffffffffffffffffff021916908373ffffffffffffffffffffffffffffffffffffffff16021790555081600281905550426006819055505050610e82806100eb6000396000f3fe6080604052600436106100dd5760003560e01c806389f71d531161007f578063c37597c611610059578063c37597c6146102eb578063c839114214610342578063f56f48f214610359578063fc0e3d9014610384576100dd565b806389f71d531461023f578063a5ddec7c1461026a578063c2f3ae8e146102b2576100dd565b806348e257cb116100bb57806348e257cb146101535780634d03e3d21461018c57806353a04b05146101b757806380985af9146101e8576100dd565b8063294914a4146100e25780633499ba95146100f95780633a4b66f114610128575b600080fd5b3480156100ee57600080fd5b506100f76103af565b005b34801561010557600080fd5b5061010e610539565b604051808215151515815260200191505060405180910390f35b34801561013457600080fd5b5061013d610549565b6040518082815260200191505060405180910390f35b34801561015f57600080fd5b5061016861054f565b6040518082600581111561017857fe5b60ff16815260200191505060405180910390f35b34801561019857600080fd5b506101a1610562565b6040518082815260200191505060405180910390f35b6101e6600480360360208110156101cd57600080fd5b81019080803560ff169060200190929190505050610568565b005b3480156101f457600080fd5b506101fd61076a565b604051808273ffffffffffffffffffffffffffffffffffffffff1673ffffffffffffffffffffffffffffffffffffffff16815260200191505060405180910390f35b34801561024b57600080fd5b50610254610790565b6040518082815260200191505060405180910390f35b34801561027657600080fd5b506102b06004803603604081101561028d57600080fd5b81019080803560ff16906020019092919080359060200190929190505050610796565b005b3480156102be57600080fd5b506102c7610b91565b604051808260058111156102d757fe5b60ff16815260200191505060405180910390f35b3480156102f757600080fd5b50610300610ba8565b604051808273ffffffffffffffffffffffffffffffffffffffff1673ffffffffffffffffffffffffffffffffffffffff16815260200191505060405180910390f35b34801561034e57600080fd5b50610357610bcd565b005b34801561036557600080fd5b5061036e610d5c565b6040518082815260200191505060405180910390f35b34801561039057600080fd5b50610399610d62565b6040518082815260200191505060405180910390f35b600060058111156103bc57fe5b600360009054906101000a900460ff1660058111156103d757fe5b1461044a576040517f08c379a00000000000000000000000000000000000000000000000000000000081526004018080602001828103825260128152602001807f4a3220686173206e6f7420706c617965642e000000000000000000000000000081525060200191505060405180910390fd5b6005546006540142116104c5576040517f08c379a00000000000000000000000000000000000000000000000000000000081526004018080602001828103825260188152602001807f54696d656f75742074696d6520686173207061737365642e000000000000000081525060200191505060405180910390fd5b6000809054906101000a900473ffffffffffffffffffffffffffffffffffffffff1673ffffffffffffffffffffffffffffffffffffffff166108fc6004549081150290604051600060405180830381858888f1935050505015801561052e573d6000803e3d6000fd5b506000600481905550565b6000600554600654014211905090565b60045481565b600360009054906101000a900460ff1681565b60025481565b6000600581111561057557fe5b600360009054906101000a900460ff16600581111561059057fe5b14610603576040517f08c379a00000000000000000000000000000000000000000000000000000000081526004018080602001828103825260158152602001807f4a3220686173206e6f7420706c6179656420796574000000000000000000000081525060200191505060405180910390fd5b600454341461067a576040517f08c379a00000000000000000000000000000000000000000000000000000000081526004018080602001828103825260168152602001807f4a3220686173207061696420746865207374616b652e0000000000000000000081525060200191505060405180910390fd5b600160009054906101000a900473ffffffffffffffffffffffffffffffffffffffff1673ffffffffffffffffffffffffffffffffffffffff163373ffffffffffffffffffffffffffffffffffffffff161461073d576040517f08c379a000000000000000000000000000000000000000000000000000000000815260040180806020018281038252601f8152602001807f4f6e6c79206a322063616e2063616c6c20746869732066756e6374696f6e2e0081525060200191505060405180910390fd5b80600360006101000a81548160ff0219169083600581111561075b57fe5b02179055504260068190555050565b600160009054906101000a900473ffffffffffffffffffffffffffffffffffffffff1681565b60065481565b600060058111156107a357fe5b600360009054906101000a900460ff1660058111156107be57fe5b1415610832576040517f08c379a00000000000000000000000000000000000000000000000000000000081526004018080602001828103825260148152602001807f4a32206d757374206861766520706c617965642e00000000000000000000000081525060200191505060405180910390fd5b6000809054906101000a900473ffffffffffffffffffffffffffffffffffffffff1673ffffffffffffffffffffffffffffffffffffffff163373ffffffffffffffffffffffffffffffffffffffff16146108f4576040517f08c379a00000000000000000000000000000000000000000000000000000000081526004018080602001828103825260168152602001807f4f6e6c79204a312063616e2063616c6c20746869732e0000000000000000000081525060200191505060405180910390fd5b60025482826040516020018083600581111561090c57fe5b60ff1660f81b815260010182815260200192505050604051602081830303815290604052805190602001201461098d576040517f08c379a0000000000000000000000000000000000000000000000000000000008152600401808060200182810382526025815260200180610e326025913960400191505060405180910390fd5b6109a682600360009054906101000a900460ff16610d6c565b15610a1d576000809054906101000a900473ffffffffffffffffffffffffffffffffffffffff1673ffffffffffffffffffffffffffffffffffffffff166108fc6004546002029081150290604051600060405180830381858888f19350505050158015610a17573d6000803e3d6000fd5b50610b85565b610a36600360009054906101000a900460ff1683610d6c565b15610aae57600160009054906101000a900473ffffffffffffffffffffffffffffffffffffffff1673ffffffffffffffffffffffffffffffffffffffff166108fc6004546002029081150290604051600060405180830381858888f19350505050158015610aa8573d6000803e3d6000fd5b50610b84565b6000809054906101000a900473ffffffffffffffffffffffffffffffffffffffff1673ffffffffffffffffffffffffffffffffffffffff166108fc6004549081150290604051600060405180830381858888f19350505050158015610b17573d6000803e3d6000fd5b50600160009054906101000a900473ffffffffffffffffffffffffffffffffffffffff1673ffffffffffffffffffffffffffffffffffffffff166108fc6004549081150290604051600060405180830381858888f19350505050158015610b82573d6000803e3d6000fd5b505b5b60006004819055505050565b6000600360009054906101000a900460ff16905090565b6000809054906101000a900473ffffffffffffffffffffffffffffffffffffffff1681565b60006005811115610bda57fe5b600360009054906101000a900460ff166005811115610bf557fe5b1415610c69576040517f08c379a00000000000000000000000000000000000000000000000000000000081526004018080602001828103825260128152602001807f4a3220616c726561647920706c617965642e000000000000000000000000000081525060200191505060405180910390fd5b600554600654014211610ce4576040517f08c379a00000000000000000000000000000000000000000000000000000000081526004018080602001828103825260188152602001807f54696d656f75742074696d6520686173207061737365642e000000000000000081525060200191505060405180910390fd5b600160009054906101000a900473ffffffffffffffffffffffffffffffffffffffff1673ffffffffffffffffffffffffffffffffffffffff166108fc6004546002029081150290604051600060405180830381858888f19350505050158015610d51573d6000803e3d6000fd5b506000600481905550565b60055481565b6000600454905090565b6000816005811115610d7a57fe5b836005811115610d8657fe5b1415610d955760009050610e2b565b60006005811115610da257fe5b836005811115610dae57fe5b1415610dbd5760009050610e2b565b6002826005811115610dcb57fe5b81610dd257fe5b066002846005811115610de157fe5b81610de857fe5b061415610e0f57816005811115610dfb57fe5b836005811115610e0757fe5b109050610e2b565b816005811115610e1b57fe5b836005811115610e2757fe5b1190505b9291505056fe566572696679207468652076616c75652069732074686520636f6d6d69746564206f6e652ea165627a7a72305820225c3345fb8c687b6401e914ad95c0c18ab7225fa173d1115f045bf09658e00f0029",
  "source": "/**\n *  @title Rock Paper Scissors Lizard Spock\n *  @author Clément Lesaege - <clement@lesaege.com>\n */\n\n/* This program is free software. It comes without any warranty, to\nthe extent permitted by applicable law. You can redistribute it\nand/or modify it under the terms of the Do What The Fuck You Want\nTo Public License, Version 2, as published by Sam Hocevar. See\nhttp://www.wtfpl.net/ for more details. */\n\npragma solidity ^0.5.1;\n\ncontract RPS{\n    address payable public j1; // The first player creating the contract.\n    address payable public j2; // The second player.\n    enum Move {Null, Rock, Paper, Scissors, Spock, Lizard} // Possible moves. Note that if the parity of the moves is the same the lower one wins, otherwise the higher one. \n    bytes32 public c1Hash; // Commitment of j1.\n    Move public c2; // Move of j2. Move.Null before he played.\n    uint256 public stake; // Amout bet by each party.\n    uint256 public TIMEOUT = 5 minutes; // If some party takes more than TIMEOUT to respond, the other can call TIMEOUT to win.\n    uint256 public lastAction; // The time of the last action. Usefull to determine if someone has timed out.\n    \n    /** @dev Constructor. Must send the amount at stake when creating the contract. Note that the move and salt must be saved.\n     *  @param _c1Hash Must be equal to keccak256(c1,salt) where c1 is the move of the j1.\n     */\n    constructor(bytes32 _c1Hash, address payable _j2) public payable {\n        stake = msg.value; // La mise correspond à la quantité d'ethers envoyés.\n        j1 = msg.sender;\n        j2 = _j2;\n        c1Hash = _c1Hash;\n        lastAction = now;\n    }\n    \n    /** @dev To be called by j2 and provided stake.\n     *  @param _c2 The move submitted by j2.\n     */\n    function play(Move _c2) public payable {\n        require(c2 == Move.Null, \"J2 has not played yet\");\n        require(msg.value == stake, \"J2 has paid the stake.\");\n        require(msg.sender == j2, \"Only j2 can call this function.\");\n\n        c2 = _c2;\n        lastAction = now;\n    }\n    \n    /** @dev To be called by j1. Reveal the move and send the ETH to the winning party or split them.\n     *  @param _c1 The move played by j1.\n     *  @param _salt The salt used when submitting the commitment when the constructor was called.\n     */\n    function solve(Move _c1, uint256 _salt) public {\n        require(c2 != Move.Null, \"J2 must have played.\");\n        require(msg.sender == j1, \"Only J1 can call this.\");\n        require(keccak256(abi.encodePacked(_c1,_salt)) == c1Hash, \"Verify the value is the commited one.\");\n\n        // If j1 or j2 throws at fallback it won't get funds and that is his fault.\n        // Despite what the warnings say, we should not use transfer as a throwing fallback would be able to block the contract, in case of tie.\n        if (win(_c1,c2))\n            j1.transfer(2*stake);\n        else if (win(c2,_c1))\n            j2.transfer(2*stake);\n        else {\n            j1.transfer(stake);\n            j2.transfer(stake);\n        }\n        stake = 0;\n    }\n    \n    /** @dev Let j2 get the funds back if j1 did not play.\n     */\n    function j1Timeout() public {\n        require(c2 != Move.Null, \"J2 already played.\");\n        require(now > lastAction + TIMEOUT, \"Timeout time has passed.\");\n        j2.transfer(2 * stake);\n        stake = 0;\n    }\n    \n    /** @dev Let j1 take back the funds if j2 never play.\n     */\n    function j2Timeout() public {\n        require(c2 == Move.Null, \"J2 has not played.\");\n        require(now > lastAction + TIMEOUT, \"Timeout time has passed.\");\n        j1.transfer(stake);\n        stake = 0;\n    }\n\n    /** @dev Is this move winning over the other.\n     *  @param _c1 The first move.\n     *  @param _c2 The move the first move is considered again.\n     *  @return w True if c1 beats c2. False if c1 is beaten by c2 or in case of tie.\n     */\n    function win(Move _c1, Move _c2) internal pure returns (bool w) {\n        if (_c1 == _c2)\n            return false; // They played the same so no winner.\n        else if (_c1 == Move.Null)\n            return false; // They did not play.\n        else if (uint(_c1) % 2 == uint(_c2) % 2)\n            return (_c1 < _c2);\n        else\n            return (_c1 > _c2);\n    }\n\n    function getStake() public view returns (uint256 s) {\n        return stake;\n    }\n\n    function getLastMove() public view returns (Move c) {\n        return c2;\n    }\n\n    function getTimeout() public view returns (bool w) {\n        return now > lastAction + TIMEOUT;\n    }\n\n}",
  "sourcePath": "/Users/cy/Desktop/rps-exercise/src/contracts/RPS.sol",
  "compiler": {
    "name": "solc",
    "version": "0.5.8+commit.23d335f2.Emscripten.clang"
  },
  "schemaVersion": "3.0.16",
  "updatedAt": "2019-09-15T10:06:02.073Z",
  "devdoc": {
    "methods": {
      "constructor": {
        "details": "Constructor. Must send the amount at stake when creating the contract. Note that the move and salt must be saved.",
        "params": {
          "_c1Hash": "Must be equal to keccak256(c1,salt) where c1 is the move of the j1."
        }
      },
      "j1Timeout()": {
        "details": "Let j2 get the funds back if j1 did not play."
      },
      "j2Timeout()": {
        "details": "Let j1 take back the funds if j2 never play."
      },
      "play(uint8)": {
        "details": "To be called by j2 and provided stake.",
        "params": {
          "_c2": "The move submitted by j2."
        }
      },
      "solve(uint8,uint256)": {
        "details": "To be called by j1. Reveal the move and send the ETH to the winning party or split them.",
        "params": {
          "_c1": "The move played by j1.",
          "_salt": "The salt used when submitting the commitment when the constructor was called."
        }
      }
    }
  },
  "userdoc": {
    "methods": {}
  }
}